{
  "fileName": "erc721.sol",
  "contractName": "Granitt",
  "source": "pragma solidity ^0.5.3;\r\n \r\nimport \"@openzeppelin/upgrades/contracts/Initializable.sol\";\r\n\r\nimport \"@openzeppelin/contracts-ethereum-package/contracts/token/ERC721/ERC721Full.sol\";\r\nimport \"@openzeppelin/contracts-ethereum-package/contracts/token/ERC721/ERC721Mintable.sol\";\r\nimport \"@openzeppelin/contracts-ethereum-package/contracts/ownership/Ownable.sol\";\r\nimport \"@openzeppelin/contracts-ethereum-package/contracts/utils/ReentrancyGuard.sol\";\r\n\r\nimport { granitt_blocks } from \"granitt_blocks.sol\";\r\nimport \"granitt_utils.sol\";\r\n\r\n\r\n//import \"@openzeppelin/contracts-ethereum-package/contracts/drafts/Counters.sol\";\r\n\r\ncontract Granitt is Initializable, ERC721Full, ERC721Mintable, \r\n  Ownable, ReentrancyGuard  \r\n{\r\n  using granitt_utils for string;\r\n  using granitt_blocks for granitt_blocks.data_blocks;\r\n  //----------------------------------------\r\n  //  Data \r\n  //----------------------------------------\r\n\r\n  struct            granitt_sale {\r\n    address         creator;\r\n    string          name;             // Name of the project\r\n    uint256         sale_id;          // Sale id\r\n    uint32          block_numbers;    // number of blocks\r\n    //uint32          block_increment;  // number of blocks that have been minted\r\n    string[]        sale_uri;         // metadata URL \r\n    granitt_blocks.data_blocks        gb;               // list of block\r\n  }\r\n\r\n  mapping(uint256 => granitt_sale) private sales_block;\r\n  uint256[] sales_block_list;\r\n  //sale_block[] public sales_block; // First Item has Index 0\r\n\r\n  uint256 private sales_counter;\r\n  uint256 private blocks_counter;\r\n\r\n  address         contract_owner;\r\n\r\n  //----------------------------------------\r\n  //  init \r\n  //----------------------------------------\r\n\r\n  function initialize() public initializer {\r\n    ERC721.initialize();\r\n    ERC721Enumerable.initialize();\r\n    ERC721Metadata.initialize(\"GranittNFT\", \"GRN\");\r\n    ERC721Mintable.initialize(msg.sender);\r\n    contract_owner = msg.sender; // The Sender is the Owner; Ethereum Address of the Owner\r\n  }\r\n\r\n  //----------------------------------------\r\n  //  Events\r\n  //----------------------------------------\r\n\r\n  event sale_create_event(\r\n      address _owner,\r\n      uint256 _id_new\r\n  );\r\n\r\n  event block_create_event(\r\n      address _owner,\r\n      uint256 _sale_id,\r\n      uint256 _id_new\r\n  );\r\n\r\n  //----------------------------------------\r\n  //  Sales\r\n  //----------------------------------------\r\n\r\n  function create_sale(address owner, string memory name, \r\n      string memory sale_uri, uint32 block_numbers) public {\r\n      \r\n      uint256 id_new = sales_counter;\r\n      sales_counter++; //increment after for the good total for sales.\r\n\r\n      sales_block[id_new].creator = owner;\r\n      sales_block[id_new].name = name;\r\n      sales_block[id_new].sale_id = id_new;\r\n      sales_block[id_new].block_numbers = block_numbers;\r\n      //sales_block[id_new].gb.block_increment = 0;\r\n      sales_block[id_new].sale_uri.push(sale_uri);\r\n\r\n      sales_block_list.push(id_new);\r\n\r\n      //_mint(owner, id_new);\r\n      //_setTokenURI(id_new, sale_uri);\r\n\r\n      emit sale_create_event(owner, id_new);\r\n  }\r\n\r\n\r\n  function get_sales_count() public view returns(uint256 count)\r\n  {\r\n      return sales_block_list.length;\r\n  }\r\n\r\n  function get_sale_info(uint256 sale_id) public view \r\n    returns(address creator, string memory name, uint32 block_numbers, \r\n            uint256 block_increment, string memory sale_uri)\r\n  {\r\n    string memory sale_uri_list;\r\n    string memory sep = \";\";\r\n    uint256 uri_len = sales_block[sale_id].sale_uri.length;\r\n\r\n    for (uint256 i = 0; i < uri_len; i++) \r\n    {\r\n      sale_uri_list = sale_uri_list.concat_str(sales_block[sale_id].sale_uri[i]);\r\n      sale_uri_list = sale_uri_list.concat_str(sep);\r\n    }\r\n\r\n    return(sales_block[sale_id].creator, \r\n           sales_block[sale_id].name, \r\n           sales_block[sale_id].block_numbers, \r\n           sales_block[sale_id].gb.get_increment(),\r\n           //granitt_blocks.get_increment(sales_block[sale_id].gb),\r\n           sale_uri_list);\r\n  }\r\n\r\n  function update_sale(uint256 sale_id, string memory name, \r\n                       string memory sale_uri) nonReentrant public \r\n    returns (uint256) \r\n  {\r\n      require(msg.sender == sales_block[sale_id].creator || \r\n              msg.sender == contract_owner);\r\n\r\n    sales_block[sale_id].name = name;\r\n    uint256 len = sales_block[sale_id].sale_uri.length;\r\n    sales_block[sale_id].sale_uri[len] = sale_uri;\r\n    _setTokenURI(sale_id, sale_uri);\r\n  }\r\n\r\n  //----------------------------------------\r\n  //  Blocks\r\n  //----------------------------------------\r\n\r\n  function get_block_counter_and_inc() private \r\n    returns (uint256) \r\n  {\r\n      uint256 id = blocks_counter;\r\n      blocks_counter++;\r\n      return id;\r\n  }\r\n\r\n  function create_block(address owner, uint256 sale_id, \r\n                        string memory block_uri) nonReentrant public \r\n    returns (uint256) \r\n  {\r\n    require(msg.sender == sales_block[sale_id].creator || \r\n            msg.sender == contract_owner);\r\n\r\n    uint256 id_new = get_block_counter_and_inc();\r\n    sales_block[sale_id].gb.create_block(owner, id_new, block_uri);\r\n\r\n    _mint(owner, id_new);      \r\n    _setTokenURI(id_new, block_uri);\r\n\r\n    emit block_create_event(owner, sale_id, id_new);\r\n\r\n    return id_new;\r\n  }\r\n\r\n  function get_block_uri(uint256 sale_id, uint256 block_id) public view \r\n    returns(string memory block_uri)\r\n  {\r\n    return(sales_block[sale_id].gb.get_block_uri(block_id));\r\n  }\r\n\r\n  function get_block_owner(uint256 sale_id, uint256 block_id) public view \r\n    returns(address block_owner)\r\n  {\r\n    return(sales_block[sale_id].gb.get_block_owner(block_id));\r\n  }\r\n\r\n\r\n  //----------------------------------------\r\n  //  utilities\r\n  //----------------------------------------\r\n\r\n\r\n\r\n\r\n  // struct paper_block {\r\n  //   string name;        // Name of the project\r\n  //   uint block_number;  // number of blocks\r\n  //   uint block_price;   // price of the block\r\n  // }\r\n  //       paper_blocks.push(paper_block(_name,5,1)); // Item (\"Sword\",5,1)\r\n\r\n}\r\n\r\n\r\n// exemple de maniplaution d'array\r\n// https://ethereum.stackexchange.com/questions/12611/solidity-filling-a-struct-array-containing-itself-an-array\r\n\r\n// solidity security\r\n// https://yos.io/2018/10/20/smart-contract-vulnerabilities-and-how-to-mitigate-them/\r\n",
  "sourcePath": "contracts/erc721.sol",
  "abi": [
    {
      "anonymous": false,
      "inputs": [
        {
          "indexed": true,
          "internalType": "address",
          "name": "owner",
          "type": "address"
        },
        {
          "indexed": true,
          "internalType": "address",
          "name": "approved",
          "type": "address"
        },
        {
          "indexed": true,
          "internalType": "uint256",
          "name": "tokenId",
          "type": "uint256"
        }
      ],
      "name": "Approval",
      "type": "event"
    },
    {
      "anonymous": false,
      "inputs": [
        {
          "indexed": true,
          "internalType": "address",
          "name": "owner",
          "type": "address"
        },
        {
          "indexed": true,
          "internalType": "address",
          "name": "operator",
          "type": "address"
        },
        {
          "indexed": false,
          "internalType": "bool",
          "name": "approved",
          "type": "bool"
        }
      ],
      "name": "ApprovalForAll",
      "type": "event"
    },
    {
      "anonymous": false,
      "inputs": [
        {
          "indexed": true,
          "internalType": "address",
          "name": "account",
          "type": "address"
        }
      ],
      "name": "MinterAdded",
      "type": "event"
    },
    {
      "anonymous": false,
      "inputs": [
        {
          "indexed": true,
          "internalType": "address",
          "name": "account",
          "type": "address"
        }
      ],
      "name": "MinterRemoved",
      "type": "event"
    },
    {
      "anonymous": false,
      "inputs": [
        {
          "indexed": true,
          "internalType": "address",
          "name": "previousOwner",
          "type": "address"
        },
        {
          "indexed": true,
          "internalType": "address",
          "name": "newOwner",
          "type": "address"
        }
      ],
      "name": "OwnershipTransferred",
      "type": "event"
    },
    {
      "anonymous": false,
      "inputs": [
        {
          "indexed": true,
          "internalType": "address",
          "name": "from",
          "type": "address"
        },
        {
          "indexed": true,
          "internalType": "address",
          "name": "to",
          "type": "address"
        },
        {
          "indexed": true,
          "internalType": "uint256",
          "name": "tokenId",
          "type": "uint256"
        }
      ],
      "name": "Transfer",
      "type": "event"
    },
    {
      "anonymous": false,
      "inputs": [
        {
          "indexed": false,
          "internalType": "address",
          "name": "_owner",
          "type": "address"
        },
        {
          "indexed": false,
          "internalType": "uint256",
          "name": "_sale_id",
          "type": "uint256"
        },
        {
          "indexed": false,
          "internalType": "uint256",
          "name": "_id_new",
          "type": "uint256"
        }
      ],
      "name": "block_create_event",
      "type": "event"
    },
    {
      "anonymous": false,
      "inputs": [
        {
          "indexed": false,
          "internalType": "address",
          "name": "_owner",
          "type": "address"
        },
        {
          "indexed": false,
          "internalType": "uint256",
          "name": "_id_new",
          "type": "uint256"
        }
      ],
      "name": "sale_create_event",
      "type": "event"
    },
    {
      "constant": false,
      "inputs": [
        {
          "internalType": "address",
          "name": "account",
          "type": "address"
        }
      ],
      "name": "addMinter",
      "outputs": [],
      "payable": false,
      "stateMutability": "nonpayable",
      "type": "function"
    },
    {
      "constant": false,
      "inputs": [
        {
          "internalType": "address",
          "name": "to",
          "type": "address"
        },
        {
          "internalType": "uint256",
          "name": "tokenId",
          "type": "uint256"
        }
      ],
      "name": "approve",
      "outputs": [],
      "payable": false,
      "stateMutability": "nonpayable",
      "type": "function"
    },
    {
      "constant": true,
      "inputs": [
        {
          "internalType": "address",
          "name": "owner",
          "type": "address"
        }
      ],
      "name": "balanceOf",
      "outputs": [
        {
          "internalType": "uint256",
          "name": "",
          "type": "uint256"
        }
      ],
      "payable": false,
      "stateMutability": "view",
      "type": "function"
    },
    {
      "constant": false,
      "inputs": [
        {
          "internalType": "address",
          "name": "owner",
          "type": "address"
        },
        {
          "internalType": "uint256",
          "name": "sale_id",
          "type": "uint256"
        },
        {
          "internalType": "string",
          "name": "block_uri",
          "type": "string"
        }
      ],
      "name": "create_block",
      "outputs": [
        {
          "internalType": "uint256",
          "name": "",
          "type": "uint256"
        }
      ],
      "payable": false,
      "stateMutability": "nonpayable",
      "type": "function"
    },
    {
      "constant": false,
      "inputs": [
        {
          "internalType": "address",
          "name": "owner",
          "type": "address"
        },
        {
          "internalType": "string",
          "name": "name",
          "type": "string"
        },
        {
          "internalType": "string",
          "name": "sale_uri",
          "type": "string"
        },
        {
          "internalType": "uint32",
          "name": "block_numbers",
          "type": "uint32"
        }
      ],
      "name": "create_sale",
      "outputs": [],
      "payable": false,
      "stateMutability": "nonpayable",
      "type": "function"
    },
    {
      "constant": true,
      "inputs": [
        {
          "internalType": "uint256",
          "name": "tokenId",
          "type": "uint256"
        }
      ],
      "name": "getApproved",
      "outputs": [
        {
          "internalType": "address",
          "name": "",
          "type": "address"
        }
      ],
      "payable": false,
      "stateMutability": "view",
      "type": "function"
    },
    {
      "constant": true,
      "inputs": [
        {
          "internalType": "uint256",
          "name": "sale_id",
          "type": "uint256"
        },
        {
          "internalType": "uint256",
          "name": "block_id",
          "type": "uint256"
        }
      ],
      "name": "get_block_owner",
      "outputs": [
        {
          "internalType": "address",
          "name": "block_owner",
          "type": "address"
        }
      ],
      "payable": false,
      "stateMutability": "view",
      "type": "function"
    },
    {
      "constant": true,
      "inputs": [
        {
          "internalType": "uint256",
          "name": "sale_id",
          "type": "uint256"
        },
        {
          "internalType": "uint256",
          "name": "block_id",
          "type": "uint256"
        }
      ],
      "name": "get_block_uri",
      "outputs": [
        {
          "internalType": "string",
          "name": "block_uri",
          "type": "string"
        }
      ],
      "payable": false,
      "stateMutability": "view",
      "type": "function"
    },
    {
      "constant": true,
      "inputs": [
        {
          "internalType": "uint256",
          "name": "sale_id",
          "type": "uint256"
        }
      ],
      "name": "get_sale_info",
      "outputs": [
        {
          "internalType": "address",
          "name": "creator",
          "type": "address"
        },
        {
          "internalType": "string",
          "name": "name",
          "type": "string"
        },
        {
          "internalType": "uint32",
          "name": "block_numbers",
          "type": "uint32"
        },
        {
          "internalType": "uint256",
          "name": "block_increment",
          "type": "uint256"
        },
        {
          "internalType": "string",
          "name": "sale_uri",
          "type": "string"
        }
      ],
      "payable": false,
      "stateMutability": "view",
      "type": "function"
    },
    {
      "constant": true,
      "inputs": [],
      "name": "get_sales_count",
      "outputs": [
        {
          "internalType": "uint256",
          "name": "count",
          "type": "uint256"
        }
      ],
      "payable": false,
      "stateMutability": "view",
      "type": "function"
    },
    {
      "constant": false,
      "inputs": [
        {
          "internalType": "string",
          "name": "name",
          "type": "string"
        },
        {
          "internalType": "string",
          "name": "symbol",
          "type": "string"
        }
      ],
      "name": "initialize",
      "outputs": [],
      "payable": false,
      "stateMutability": "nonpayable",
      "type": "function"
    },
    {
      "constant": false,
      "inputs": [],
      "name": "initialize",
      "outputs": [],
      "payable": false,
      "stateMutability": "nonpayable",
      "type": "function"
    },
    {
      "constant": false,
      "inputs": [
        {
          "internalType": "address",
          "name": "sender",
          "type": "address"
        }
      ],
      "name": "initialize",
      "outputs": [],
      "payable": false,
      "stateMutability": "nonpayable",
      "type": "function"
    },
    {
      "constant": true,
      "inputs": [
        {
          "internalType": "address",
          "name": "owner",
          "type": "address"
        },
        {
          "internalType": "address",
          "name": "operator",
          "type": "address"
        }
      ],
      "name": "isApprovedForAll",
      "outputs": [
        {
          "internalType": "bool",
          "name": "",
          "type": "bool"
        }
      ],
      "payable": false,
      "stateMutability": "view",
      "type": "function"
    },
    {
      "constant": true,
      "inputs": [
        {
          "internalType": "address",
          "name": "account",
          "type": "address"
        }
      ],
      "name": "isMinter",
      "outputs": [
        {
          "internalType": "bool",
          "name": "",
          "type": "bool"
        }
      ],
      "payable": false,
      "stateMutability": "view",
      "type": "function"
    },
    {
      "constant": true,
      "inputs": [],
      "name": "isOwner",
      "outputs": [
        {
          "internalType": "bool",
          "name": "",
          "type": "bool"
        }
      ],
      "payable": false,
      "stateMutability": "view",
      "type": "function"
    },
    {
      "constant": false,
      "inputs": [
        {
          "internalType": "address",
          "name": "to",
          "type": "address"
        },
        {
          "internalType": "uint256",
          "name": "tokenId",
          "type": "uint256"
        }
      ],
      "name": "mint",
      "outputs": [
        {
          "internalType": "bool",
          "name": "",
          "type": "bool"
        }
      ],
      "payable": false,
      "stateMutability": "nonpayable",
      "type": "function"
    },
    {
      "constant": true,
      "inputs": [],
      "name": "name",
      "outputs": [
        {
          "internalType": "string",
          "name": "",
          "type": "string"
        }
      ],
      "payable": false,
      "stateMutability": "view",
      "type": "function"
    },
    {
      "constant": true,
      "inputs": [],
      "name": "owner",
      "outputs": [
        {
          "internalType": "address",
          "name": "",
          "type": "address"
        }
      ],
      "payable": false,
      "stateMutability": "view",
      "type": "function"
    },
    {
      "constant": true,
      "inputs": [
        {
          "internalType": "uint256",
          "name": "tokenId",
          "type": "uint256"
        }
      ],
      "name": "ownerOf",
      "outputs": [
        {
          "internalType": "address",
          "name": "",
          "type": "address"
        }
      ],
      "payable": false,
      "stateMutability": "view",
      "type": "function"
    },
    {
      "constant": false,
      "inputs": [],
      "name": "renounceMinter",
      "outputs": [],
      "payable": false,
      "stateMutability": "nonpayable",
      "type": "function"
    },
    {
      "constant": false,
      "inputs": [],
      "name": "renounceOwnership",
      "outputs": [],
      "payable": false,
      "stateMutability": "nonpayable",
      "type": "function"
    },
    {
      "constant": false,
      "inputs": [
        {
          "internalType": "address",
          "name": "from",
          "type": "address"
        },
        {
          "internalType": "address",
          "name": "to",
          "type": "address"
        },
        {
          "internalType": "uint256",
          "name": "tokenId",
          "type": "uint256"
        }
      ],
      "name": "safeTransferFrom",
      "outputs": [],
      "payable": false,
      "stateMutability": "nonpayable",
      "type": "function"
    },
    {
      "constant": false,
      "inputs": [
        {
          "internalType": "address",
          "name": "from",
          "type": "address"
        },
        {
          "internalType": "address",
          "name": "to",
          "type": "address"
        },
        {
          "internalType": "uint256",
          "name": "tokenId",
          "type": "uint256"
        },
        {
          "internalType": "bytes",
          "name": "_data",
          "type": "bytes"
        }
      ],
      "name": "safeTransferFrom",
      "outputs": [],
      "payable": false,
      "stateMutability": "nonpayable",
      "type": "function"
    },
    {
      "constant": false,
      "inputs": [
        {
          "internalType": "address",
          "name": "to",
          "type": "address"
        },
        {
          "internalType": "bool",
          "name": "approved",
          "type": "bool"
        }
      ],
      "name": "setApprovalForAll",
      "outputs": [],
      "payable": false,
      "stateMutability": "nonpayable",
      "type": "function"
    },
    {
      "constant": true,
      "inputs": [
        {
          "internalType": "bytes4",
          "name": "interfaceId",
          "type": "bytes4"
        }
      ],
      "name": "supportsInterface",
      "outputs": [
        {
          "internalType": "bool",
          "name": "",
          "type": "bool"
        }
      ],
      "payable": false,
      "stateMutability": "view",
      "type": "function"
    },
    {
      "constant": true,
      "inputs": [],
      "name": "symbol",
      "outputs": [
        {
          "internalType": "string",
          "name": "",
          "type": "string"
        }
      ],
      "payable": false,
      "stateMutability": "view",
      "type": "function"
    },
    {
      "constant": true,
      "inputs": [
        {
          "internalType": "uint256",
          "name": "index",
          "type": "uint256"
        }
      ],
      "name": "tokenByIndex",
      "outputs": [
        {
          "internalType": "uint256",
          "name": "",
          "type": "uint256"
        }
      ],
      "payable": false,
      "stateMutability": "view",
      "type": "function"
    },
    {
      "constant": true,
      "inputs": [
        {
          "internalType": "address",
          "name": "owner",
          "type": "address"
        },
        {
          "internalType": "uint256",
          "name": "index",
          "type": "uint256"
        }
      ],
      "name": "tokenOfOwnerByIndex",
      "outputs": [
        {
          "internalType": "uint256",
          "name": "",
          "type": "uint256"
        }
      ],
      "payable": false,
      "stateMutability": "view",
      "type": "function"
    },
    {
      "constant": true,
      "inputs": [
        {
          "internalType": "uint256",
          "name": "tokenId",
          "type": "uint256"
        }
      ],
      "name": "tokenURI",
      "outputs": [
        {
          "internalType": "string",
          "name": "",
          "type": "string"
        }
      ],
      "payable": false,
      "stateMutability": "view",
      "type": "function"
    },
    {
      "constant": true,
      "inputs": [],
      "name": "totalSupply",
      "outputs": [
        {
          "internalType": "uint256",
          "name": "",
          "type": "uint256"
        }
      ],
      "payable": false,
      "stateMutability": "view",
      "type": "function"
    },
    {
      "constant": false,
      "inputs": [
        {
          "internalType": "address",
          "name": "from",
          "type": "address"
        },
        {
          "internalType": "address",
          "name": "to",
          "type": "address"
        },
        {
          "internalType": "uint256",
          "name": "tokenId",
          "type": "uint256"
        }
      ],
      "name": "transferFrom",
      "outputs": [],
      "payable": false,
      "stateMutability": "nonpayable",
      "type": "function"
    },
    {
      "constant": false,
      "inputs": [
        {
          "internalType": "address",
          "name": "newOwner",
          "type": "address"
        }
      ],
      "name": "transferOwnership",
      "outputs": [],
      "payable": false,
      "stateMutability": "nonpayable",
      "type": "function"
    },
    {
      "constant": false,
      "inputs": [
        {
          "internalType": "uint256",
          "name": "sale_id",
          "type": "uint256"
        },
        {
          "internalType": "string",
          "name": "name",
          "type": "string"
        },
        {
          "internalType": "string",
          "name": "sale_uri",
          "type": "string"
        }
      ],
      "name": "update_sale",
      "outputs": [
        {
          "internalType": "uint256",
          "name": "",
          "type": "uint256"
        }
      ],
      "payable": false,
      "stateMutability": "nonpayable",
      "type": "function"
    }
  ],
  "bytecode": "0x60806040525b5b61000b565b615997806200001b6000396000f3fe60806040523480156100115760006000fd5b506004361061020b5760003560e01c8063715018a61161011b578063a22cb465116100ae578063c87b56dd1161007d578063c87b56dd1461107b578063e985e9c514611124578063ef230db6146111a1578063f2fde38b14611304578063f84eca77146113495761020b565b8063a22cb46514610e7b578063aa271e1a14610ecc578063b88d4fde14610f29578063c4d66de8146110365761020b565b80638f32d59b116100ea5780638f32d59b14610d8657806395d89b4114610da8578063983b2d5614610e2c5780639865027514610e715761020b565b8063715018a614610c275780638129fc1c14610c31578063890da3f914610c3b5780638da5cb5b14610d3c5761020b565b8063308287131161019e57806345c14b081161016d57806345c14b081461083c5780634cd88b76146109bb5780634f6ccce714610b1c5780636352211e14610b5f57806370a0823114610bce5761020b565b8063308287131461052257806340b5650d146105d557806340c10f191461076657806342842e0e146107cd5761020b565b806318160ddd116101da57806318160ddd146103b957806323b872dd146103d75780632b015892146104465780632f745c59146104bf5761020b565b806301ffc9a71461021157806306fdde0314610277578063081812fc146102fb578063095ea7b31461036a5761020b565b60006000fd5b61025d600480360360208110156102285760006000fd5b8101908080357bffffffffffffffffffffffffffffffffffffffffffffffffffffffff19169060200190929190505050611367565b604051808215151515815260200191505060405180910390f35b61027f6113d7565b6040518080602001828103825283818151815260200191508051906020019080838360005b838110156102c05780820151818401525b6020810190506102a4565b50505050905090810190601f1680156102ed5780820380516001836020036101000a031916815260200191505b509250505060405180910390f35b610328600480360360208110156103125760006000fd5b8101908080359060200190929190505050611481565b604051808273ffffffffffffffffffffffffffffffffffffffff1673ffffffffffffffffffffffffffffffffffffffff16815260200191505060405180910390f35b6103b7600480360360408110156103815760006000fd5b81019080803573ffffffffffffffffffffffffffffffffffffffff1690602001909291908035906020019092919050505061152c565b005b6103c1611733565b6040518082815260200191505060405180910390f35b610444600480360360608110156103ee5760006000fd5b81019080803573ffffffffffffffffffffffffffffffffffffffff169060200190929190803573ffffffffffffffffffffffffffffffffffffffff16906020019092919080359060200190929190505050611748565b005b61047d6004803603604081101561045d5760006000fd5b8101908080359060200190929190803590602001909291905050506117d3565b604051808273ffffffffffffffffffffffffffffffffffffffff1673ffffffffffffffffffffffffffffffffffffffff16815260200191505060405180910390f35b61050c600480360360408110156104d65760006000fd5b81019080803573ffffffffffffffffffffffffffffffffffffffff16906020019092919080359060200190929190505050611814565b6040518082815260200191505060405180910390f35b610559600480360360408110156105395760006000fd5b8101908080359060200190929190803590602001909291905050506118ed565b6040518080602001828103825283818151815260200191508051906020019080838360005b8381101561059a5780820151818401525b60208101905061057e565b50505050905090810190601f1680156105c75780820380516001836020036101000a031916815260200191505b509250505060405180910390f35b610764600480360360808110156105ec5760006000fd5b81019080803573ffffffffffffffffffffffffffffffffffffffff1690602001909291908035906020019064010000000081111561062a5760006000fd5b82018360208201111561063d5760006000fd5b803590602001918460018302840111640100000000831117156106605760006000fd5b91908080601f016020809104026020016040519081016040528093929190818152602001838380828437600081840152601f19601f82011690508083019250505050505050909091929090919290803590602001906401000000008111156106c85760006000fd5b8201836020820111156106db5760006000fd5b803590602001918460018302840111640100000000831117156106fe5760006000fd5b91908080601f016020809104026020016040519081016040528093929190818152602001838380828437600081840152601f19601f82011690508083019250505050505050909091929090919290803563ffffffff16906020019092919050505061192e565b005b6107b36004803603604081101561077d5760006000fd5b81019080803573ffffffffffffffffffffffffffffffffffffffff16906020019092919080359060200190929190505050611b4a565b604051808215151515815260200191505060405180910390f35b61083a600480360360608110156107e45760006000fd5b81019080803573ffffffffffffffffffffffffffffffffffffffff169060200190929190803573ffffffffffffffffffffffffffffffffffffffff16906020019092919080359060200190929190505050611bdf565b005b6109a5600480360360608110156108535760006000fd5b81019080803590602001909291908035906020019064010000000081111561087b5760006000fd5b82018360208201111561088e5760006000fd5b803590602001918460018302840111640100000000831117156108b15760006000fd5b91908080601f016020809104026020016040519081016040528093929190818152602001838380828437600081840152601f19601f82011690508083019250505050505050909091929090919290803590602001906401000000008111156109195760006000fd5b82018360208201111561092c5760006000fd5b8035906020019184600183028401116401000000008311171561094f5760006000fd5b91908080601f016020809104026020016040519081016040528093929190818152602001838380828437600081840152601f19601f82011690508083019250505050505050909091929090919290505050611c09565b6040518082815260200191505060405180910390f35b610b1a600480360360408110156109d25760006000fd5b81019080803590602001906401000000008111156109f05760006000fd5b820183602082011115610a035760006000fd5b80359060200191846001830284011164010000000083111715610a265760006000fd5b91908080601f016020809104026020016040519081016040528093929190818152602001838380828437600081840152601f19601f8201169050808301925050505050505090909192909091929080359060200190640100000000811115610a8e5760006000fd5b820183602082011115610aa15760006000fd5b80359060200191846001830284011164010000000083111715610ac45760006000fd5b91908080601f016020809104026020016040519081016040528093929190818152602001838380828437600081840152601f19601f82011690508083019250505050505050909091929090919290505050611e46565b005b610b4960048036036020811015610b335760006000fd5b8101908080359060200190929190505050611fb9565b6040518082815260200191505060405180910390f35b610b8c60048036036020811015610b765760006000fd5b8101908080359060200190929190505050612050565b604051808273ffffffffffffffffffffffffffffffffffffffff1673ffffffffffffffffffffffffffffffffffffffff16815260200191505060405180910390f35b610c1160048036036020811015610be55760006000fd5b81019080803573ffffffffffffffffffffffffffffffffffffffff169060200190929190505050612124565b6040518082815260200191505060405180910390f35b610c2f61220f565b005b610c39612359565b005b610d2660048036036060811015610c525760006000fd5b81019080803573ffffffffffffffffffffffffffffffffffffffff1690602001909291908035906020019092919080359060200190640100000000811115610c9a5760006000fd5b820183602082011115610cad5760006000fd5b80359060200191846001830284011164010000000083111715610cd05760006000fd5b91908080601f016020809104026020016040519081016040528093929190818152602001838380828437600081840152601f19601f82011690508083019250505050505050909091929090919290505050612553565b6040518082815260200191505060405180910390f35b610d446127b5565b604051808273ffffffffffffffffffffffffffffffffffffffff1673ffffffffffffffffffffffffffffffffffffffff16815260200191505060405180910390f35b610d8e6127e5565b604051808215151515815260200191505060405180910390f35b610db0612850565b6040518080602001828103825283818151815260200191508051906020019080838360005b83811015610df15780820151818401525b602081019050610dd5565b50505050905090810190601f168015610e1e5780820380516001836020036101000a031916815260200191505b509250505060405180910390f35b610e6f60048036036020811015610e435760006000fd5b81019080803573ffffffffffffffffffffffffffffffffffffffff1690602001909291905050506128fa565b005b610e79612981565b005b610eca60048036036040811015610e925760006000fd5b81019080803573ffffffffffffffffffffffffffffffffffffffff1690602001909291908035151590602001909291905050506129a0565b005b610f0f60048036036020811015610ee35760006000fd5b81019080803573ffffffffffffffffffffffffffffffffffffffff169060200190929190505050612b76565b604051808215151515815260200191505060405180910390f35b61103460048036036080811015610f405760006000fd5b81019080803573ffffffffffffffffffffffffffffffffffffffff169060200190929190803573ffffffffffffffffffffffffffffffffffffffff1690602001909291908035906020019092919080359060200190640100000000811115610fa85760006000fd5b820183602082011115610fbb5760006000fd5b80359060200191846001830284011164010000000083111715610fde5760006000fd5b91908080601f016020809104026020016040519081016040528093929190818152602001838380828437600081840152601f19601f82011690508083019250505050505050909091929090919290505050612b9c565b005b6110796004803603602081101561104d5760006000fd5b81019080803573ffffffffffffffffffffffffffffffffffffffff169060200190929190505050612c1d565b005b6110a8600480360360208110156110925760006000fd5b8101908080359060200190929190505050612deb565b6040518080602001828103825283818151815260200191508051906020019080838360005b838110156110e95780820151818401525b6020810190506110cd565b50505050905090810190601f1680156111165780820380516001836020036101000a031916815260200191505b509250505060405180910390f35b6111876004803603604081101561113b5760006000fd5b81019080803573ffffffffffffffffffffffffffffffffffffffff169060200190929190803573ffffffffffffffffffffffffffffffffffffffff169060200190929190505050612f11565b604051808215151515815260200191505060405180910390f35b6111ce600480360360208110156111b85760006000fd5b8101908080359060200190929190505050612fb0565b604051808673ffffffffffffffffffffffffffffffffffffffff1673ffffffffffffffffffffffffffffffffffffffff168152602001806020018563ffffffff1663ffffffff16815260200184815260200180602001838103835287818151815260200191508051906020019080838360005b8381101561125d5780820151818401525b602081019050611241565b50505050905090810190601f16801561128a5780820380516001836020036101000a031916815260200191505b50838103825284818151815260200191508051906020019080838360005b838110156112c45780820151818401525b6020810190506112a8565b50505050905090810190601f1680156112f15780820380516001836020036101000a031916815260200191505b5097505050505050505060405180910390f35b6113476004803603602081101561131b5760006000fd5b81019080803573ffffffffffffffffffffffffffffffffffffffff169060200190929190505050613665565b005b6113516136fe565b6040518082815260200191505060405180910390f35b600060336000506000837bffffffffffffffffffffffffffffffffffffffffffffffffffffffff19167bffffffffffffffffffffffffffffffffffffffffffffffffffffffff1916815260200190815260200160002060009054906101000a900460ff1690506113d2565b919050565b606060d26000508054600181600116156101000203166002900480601f0160208091040260200160405190810160405280929190818152602001828054600181600116156101000203166002900480156114725780601f1061144757610100808354040283529160200191611472565b820191906000526020600020905b81548152906001019060200180831161145557829003601f168201915b5050505050905061147e565b90565b60006114928261371463ffffffff16565b15156114e9576040517f08c379a000000000000000000000000000000000000000000000000000000000815260040180806020018281038252602c8152602001806157e5602c913960400191505060405180910390fd5b6067600050600083815260200190815260200160002060009054906101000a900473ffffffffffffffffffffffffffffffffffffffff169050611527565b919050565b600061153d8261205063ffffffff16565b90508073ffffffffffffffffffffffffffffffffffffffff168373ffffffffffffffffffffffffffffffffffffffff16141515156115c6576040517f08c379a00000000000000000000000000000000000000000000000000000000081526004018080602001828103825260218152602001806158e56021913960400191505060405180910390fd5b8073ffffffffffffffffffffffffffffffffffffffff166115eb61379063ffffffff16565b73ffffffffffffffffffffffffffffffffffffffff16148061162657506116258161161a61379063ffffffff16565b612f1163ffffffff16565b5b151561167d576040517f08c379a00000000000000000000000000000000000000000000000000000000081526004018080602001828103825260388152602001806157096038913960400191505060405180910390fd5b826067600050600084815260200190815260200160002060006101000a81548173ffffffffffffffffffffffffffffffffffffffff021916908373ffffffffffffffffffffffffffffffffffffffff160217905550818373ffffffffffffffffffffffffffffffffffffffff168273ffffffffffffffffffffffffffffffffffffffff167f8c5be1e5ebec7d5bd14f71427d1e84f3dd0314c0f7b2291e5b200ac8c7c3b92560405160405180910390a4505b5050565b6000609e600050805490509050611745565b90565b61176561175961379063ffffffff16565b8261379d63ffffffff16565b15156117bc576040517f08c379a00000000000000000000000000000000000000000000000000000000081526004018080602001828103825260318152602001806159066031913960400191505060405180910390fd5b6117cd8383836138b163ffffffff16565b5b505050565b60006118078261020460005060008681526020019081526020016000206000506005016000506138e890919063ffffffff16565b905061180e565b92915050565b60006118258361212463ffffffff16565b8210151561187e576040517f08c379a000000000000000000000000000000000000000000000000000000000815260040180806020018281038252602b815260200180615636602b913960400191505060405180910390fd5b609c60005060008473ffffffffffffffffffffffffffffffffffffffff1673ffffffffffffffffffffffffffffffffffffffff168152602001908152602001600020600050828154811015156118d057fe5b906000526020600020900160005b505490506118e7565b92915050565b606061192182610204600050600086815260200190815260200160002060005060050160005061394c90919063ffffffff16565b9050611928565b92915050565b6000610206600050549050610206600081815054809291906001019190509090555084610204600050600083815260200190815260200160002060005060000160006101000a81548173ffffffffffffffffffffffffffffffffffffffff021916908373ffffffffffffffffffffffffffffffffffffffff16021790555083610204600050600083815260200190815260200160002060005060010160005090805190602001906119e0929190615559565b5080610204600050600083815260200190815260200160002060005060020160005081909090555081610204600050600083815260200190815260200160002060005060030160006101000a81548163ffffffff021916908363ffffffff16021790555061020460005060008281526020019081526020016000206000506004016000508390806001815401808255809150509060018203906000526020600020900160005b90919290919091509080519060200190611aa1929190615559565b50506102056000508190806001815401808255809150509060018203906000526020600020900160005b9091929091909150909055507fce9c09065c0566741dca42eb392f1de00bbb472d5ed49adb60fa880297491f1f8582604051808373ffffffffffffffffffffffffffffffffffffffff1673ffffffffffffffffffffffffffffffffffffffff1681526020018281526020019250505060405180910390a1505b50505050565b6000611b68611b5d61379063ffffffff16565b612b7663ffffffff16565b1515611bbf576040517f08c379a00000000000000000000000000000000000000000000000000000000081526004018080602001828103825260308152602001806157946030913960400191505060405180910390fd5b611bcf8383613a2b63ffffffff16565b60019050611bd8565b5b92915050565b611c0383838360405180602001604052806000815260200150612b9c63ffffffff16565b5b505050565b600060016101d1600082828250540192505081909090555060006101d1600050549050610204600050600086815260200190815260200160002060005060000160009054906101000a900473ffffffffffffffffffffffffffffffffffffffff1673ffffffffffffffffffffffffffffffffffffffff163373ffffffffffffffffffffffffffffffffffffffff161480611cf1575061020860009054906101000a900473ffffffffffffffffffffffffffffffffffffffff1673ffffffffffffffffffffffffffffffffffffffff163373ffffffffffffffffffffffffffffffffffffffff16145b1515611cfd5760006000fd5b8361020460005060008781526020019081526020016000206000506001016000509080519060200190611d31929190615559565b506000610204600050600087815260200190815260200160002060005060040160005080549050905083610204600050600088815260200190815260200160002060005060040160005082815481101515611d8857fe5b906000526020600020900160005b509080519060200190611daa929190615559565b50611dbb8685613a5f63ffffffff16565b505b6101d16000505481141515611e3d576040517f08c379a000000000000000000000000000000000000000000000000000000000815260040180806020018281038252601f8152602001807f5265656e7472616e637947756172643a207265656e7472616e742063616c6c0081526020015060200191505060405180910390fd5b505b9392505050565b600060019054906101000a900460ff1680611e6b5750611e6a613af863ffffffff16565b5b80611e835750600060009054906101000a900460ff16155b1515611eda576040517f08c379a000000000000000000000000000000000000000000000000000000000815260040180806020018281038252602e81526020018061585f602e913960400191505060405180910390fd5b6000600060019054906101000a900460ff161590508015611f2c576001600060016101000a81548160ff0219169083151502179055506001600060006101000a81548160ff0219169083151502179055505b611f3a613b1063ffffffff16565b1515611f465760006000fd5b8260d26000509080519060200190611f5f929190615559565b508160d36000509080519060200190611f79929190615559565b50611f90635b5e139f60e01b613b3263ffffffff16565b5b8015611fb3576000600060016101000a81548160ff0219169083151502179055505b505b5050565b6000611fc961173363ffffffff16565b82101515612022576040517f08c379a000000000000000000000000000000000000000000000000000000000815260040180806020018281038252602c815260200180615937602c913960400191505060405180910390fd5b609e6000508281548110151561203457fe5b906000526020600020900160005b5054905061204b565b919050565b600060006066600050600084815260200190815260200160002060009054906101000a900473ffffffffffffffffffffffffffffffffffffffff169050600073ffffffffffffffffffffffffffffffffffffffff168173ffffffffffffffffffffffffffffffffffffffff1614151515612115576040517f08c379a000000000000000000000000000000000000000000000000000000000815260040180806020018281038252602981526020018061576b6029913960400191505060405180910390fd5b8091505061211f56505b919050565b6000600073ffffffffffffffffffffffffffffffffffffffff168273ffffffffffffffffffffffffffffffffffffffff16141515156121ae576040517f08c379a000000000000000000000000000000000000000000000000000000000815260040180806020018281038252602a815260200180615741602a913960400191505060405180910390fd5b612203606860005060008473ffffffffffffffffffffffffffffffffffffffff1673ffffffffffffffffffffffffffffffffffffffff168152602001908152602001600020600050613c44909063ffffffff16565b905061220a565b919050565b61221d6127e563ffffffff16565b1515612294576040517f08c379a00000000000000000000000000000000000000000000000000000000081526004018080602001828103825260208152602001807f4f776e61626c653a2063616c6c6572206973206e6f7420746865206f776e657281526020015060200191505060405180910390fd5b600073ffffffffffffffffffffffffffffffffffffffff1661019e60009054906101000a900473ffffffffffffffffffffffffffffffffffffffff1673ffffffffffffffffffffffffffffffffffffffff167f8be0079c531659141344cd1fd0a4f28419497f9722a3daafe3b4186f6b6457e060405160405180910390a3600061019e60006101000a81548173ffffffffffffffffffffffffffffffffffffffff021916908373ffffffffffffffffffffffffffffffffffffffff1602179055505b5b565b600060019054906101000a900460ff168061237e575061237d613af863ffffffff16565b5b806123965750600060009054906101000a900460ff16155b15156123ed576040517f08c379a000000000000000000000000000000000000000000000000000000000815260040180806020018281038252602e81526020018061585f602e913960400191505060405180910390fd5b6000600060019054906101000a900460ff16159050801561243f576001600060016101000a81548160ff0219169083151502179055506001600060006101000a81548160ff0219169083151502179055505b61244d613c5a63ffffffff16565b61245b613d8b63ffffffff16565b6124db6040518060400160405280600a81526020017f4772616e6974744e4654000000000000000000000000000000000000000000008152602001506040518060400160405280600381526020017f47524e0000000000000000000000000000000000000000000000000000000000815260200150611e4663ffffffff16565b6124ea33613ec863ffffffff16565b3361020860006101000a81548173ffffffffffffffffffffffffffffffffffffffff021916908373ffffffffffffffffffffffffffffffffffffffff1602179055505b801561254f576000600060016101000a81548160ff0219169083151502179055505b505b565b600060016101d1600082828250540192505081909090555060006101d1600050549050610204600050600085815260200190815260200160002060005060000160009054906101000a900473ffffffffffffffffffffffffffffffffffffffff1673ffffffffffffffffffffffffffffffffffffffff163373ffffffffffffffffffffffffffffffffffffffff16148061263b575061020860009054906101000a900473ffffffffffffffffffffffffffffffffffffffff1673ffffffffffffffffffffffffffffffffffffffff163373ffffffffffffffffffffffffffffffffffffffff16145b15156126475760006000fd5b6000612657613fff63ffffffff16565b905061268f86828661020460005060008a8152602001908152602001600020600050600501600050614030909392919063ffffffff16565b61269f8682613a2b63ffffffff16565b6126af8185613a5f63ffffffff16565b7f9f5cbdd91ab9733e5877057c0e976c71ba07641199634666f4502cd13f0b0583868683604051808473ffffffffffffffffffffffffffffffffffffffff1673ffffffffffffffffffffffffffffffffffffffff168152602001838152602001828152602001935050505060405180910390a18092505061272c56505b6101d160005054811415156127ac576040517f08c379a000000000000000000000000000000000000000000000000000000000815260040180806020018281038252601f8152602001807f5265656e7472616e637947756172643a207265656e7472616e742063616c6c0081526020015060200191505060405180910390fd5b505b9392505050565b600061019e60009054906101000a900473ffffffffffffffffffffffffffffffffffffffff1690506127e2565b90565b600061019e60009054906101000a900473ffffffffffffffffffffffffffffffffffffffff1673ffffffffffffffffffffffffffffffffffffffff1661282f61379063ffffffff16565b73ffffffffffffffffffffffffffffffffffffffff1614905061284d565b90565b606060d36000508054600181600116156101000203166002900480601f0160208091040260200160405190810160405280929190818152602001828054600181600116156101000203166002900480156128eb5780601f106128c0576101008083540402835291602001916128eb565b820191906000526020600020905b8154815290600101906020018083116128ce57829003601f168201915b505050505090506128f7565b90565b61291661290b61379063ffffffff16565b612b7663ffffffff16565b151561296d576040517f08c379a00000000000000000000000000000000000000000000000000000000081526004018080602001828103825260308152602001806157946030913960400191505060405180910390fd5b61297c8161413d63ffffffff16565b5b5b50565b61299d61299261379063ffffffff16565b61419c63ffffffff16565b5b565b6129ae61379063ffffffff16565b73ffffffffffffffffffffffffffffffffffffffff168273ffffffffffffffffffffffffffffffffffffffff1614151515612a54576040517f08c379a00000000000000000000000000000000000000000000000000000000081526004018080602001828103825260198152602001807f4552433732313a20617070726f766520746f2063616c6c65720000000000000081526020015060200191505060405180910390fd5b8060696000506000612a6a61379063ffffffff16565b73ffffffffffffffffffffffffffffffffffffffff1673ffffffffffffffffffffffffffffffffffffffff16815260200190815260200160002060005060008473ffffffffffffffffffffffffffffffffffffffff1673ffffffffffffffffffffffffffffffffffffffff16815260200190815260200160002060006101000a81548160ff0219169083151502179055508173ffffffffffffffffffffffffffffffffffffffff16612b2061379063ffffffff16565b73ffffffffffffffffffffffffffffffffffffffff167f17307eab39ab6107e8899845ad3d59bd9653f200f220920489ca2b5937696c3183604051808215151515815260200191505060405180910390a35b5050565b6000612b90826101396000506141fb90919063ffffffff16565b9050612b97565b919050565b612bad84848461174863ffffffff16565b612bbf848484846142e463ffffffff16565b1515612c16576040517f08c379a00000000000000000000000000000000000000000000000000000000081526004018080602001828103825260328152602001806156616032913960400191505060405180910390fd5b5b50505050565b600060019054906101000a900460ff1680612c425750612c41613af863ffffffff16565b5b80612c5a5750600060009054906101000a900460ff16155b1515612cb1576040517f08c379a000000000000000000000000000000000000000000000000000000000815260040180806020018281038252602e81526020018061585f602e913960400191505060405180910390fd5b6000600060019054906101000a900460ff161590508015612d03576001600060016101000a81548160ff0219169083151502179055506001600060006101000a81548160ff0219169083151502179055505b8161019e60006101000a81548173ffffffffffffffffffffffffffffffffffffffff021916908373ffffffffffffffffffffffffffffffffffffffff16021790555061019e60009054906101000a900473ffffffffffffffffffffffffffffffffffffffff1673ffffffffffffffffffffffffffffffffffffffff16600073ffffffffffffffffffffffffffffffffffffffff167f8be0079c531659141344cd1fd0a4f28419497f9722a3daafe3b4186f6b6457e060405160405180910390a35b8015612de6576000600060016101000a81548160ff0219169083151502179055505b505b50565b6060612dfc8261371463ffffffff16565b1515612e53576040517f08c379a000000000000000000000000000000000000000000000000000000000815260040180806020018281038252602f8152602001806158b6602f913960400191505060405180910390fd5b60d460005060008381526020019081526020016000206000508054600181600116156101000203166002900480601f016020809104026020016040519081016040528092919081815260200182805460018160011615610100020316600290048015612f005780601f10612ed557610100808354040283529160200191612f00565b820191906000526020600020905b815481529060010190602001808311612ee357829003601f168201915b50505050509050612f0c565b919050565b6000606960005060008473ffffffffffffffffffffffffffffffffffffffff1673ffffffffffffffffffffffffffffffffffffffff16815260200190815260200160002060005060008373ffffffffffffffffffffffffffffffffffffffff1673ffffffffffffffffffffffffffffffffffffffff16815260200190815260200160002060009054906101000a900460ff169050612faa565b92915050565b60006060600060006060606060606040518060400160405280600181526020017f3b000000000000000000000000000000000000000000000000000000000000008152602001509050600061020460005060008a81526020019081526020016000206000506004016000508054905090506000600090505b818110156134ed578373__granitt_utils_________________________63ec1a81cc909161020460005060008e81526020019081526020016000206000506004016000508481548110151561307a57fe5b906000526020600020900160005b506040518363ffffffff1660e01b8152600401808060200180602001838103835285818151815260200191508051906020019080838360005b838110156130dd5780820151818401525b6020810190506130c1565b50505050905090810190601f16801561310a5780820380516001836020036101000a031916815260200191505b5083810382528481815460018160011615610100020316600290048152602001915080546001816001161561010002031660029004801561318c5780601f106131615761010080835404028352916020019161318c565b820191906000526020600020905b81548152906001019060200180831161316f57829003601f168201915b505094505050505060006040518083038186803b1580156131ad5760006000fd5b505af41580156131c2573d600060003e3d6000fd5b505050506040513d6000823e3d601f19601f8201168201806040525060208110156131ed5760006000fd5b810190808051604051939291908464010000000082111561320e5760006000fd5b838201915060208201858111156132255760006000fd5b82518660018202830111640100000000821117156132435760006000fd5b8083526020830192505050908051906020019080838360005b838110156132785780820151818401525b60208101905061325c565b50505050905090810190601f1680156132a55780820380516001836020036101000a031916815260200191505b50604052602001505050935083508373__granitt_utils_________________________63ec1a81cc9091856040518363ffffffff1660e01b8152600401808060200180602001838103835285818151815260200191508051906020019080838360005b838110156133255780820151818401525b602081019050613309565b50505050905090810190601f1680156133525780820380516001836020036101000a031916815260200191505b50838103825284818151815260200191508051906020019080838360005b8381101561338c5780820151818401525b602081019050613370565b50505050905090810190601f1680156133b95780820380516001836020036101000a031916815260200191505b5094505050505060006040518083038186803b1580156133d95760006000fd5b505af41580156133ee573d600060003e3d6000fd5b505050506040513d6000823e3d601f19601f8201168201806040525060208110156134195760006000fd5b810190808051604051939291908464010000000082111561343a5760006000fd5b838201915060208201858111156134515760006000fd5b825186600182028301116401000000008211171561346f5760006000fd5b8083526020830192505050908051906020019080838360005b838110156134a45780820151818401525b602081019050613488565b50505050905090810190601f1680156134d15780820380516001836020036101000a031916815260200191505b50604052602001505050935083505b8080600101915050613028565b5061020460005060008a815260200190815260200160002060005060000160009054906101000a900473ffffffffffffffffffffffffffffffffffffffff1661020460005060008b815260200190815260200160002060005060010160005061020460005060008c815260200190815260200160002060005060030160009054906101000a900463ffffffff166135aa61020460005060008e81526020019081526020016000206000506005016000506144ed909063ffffffff16565b86838054600181600116156101000203166002900480601f0160208091040260200160405190810160405280929190818152602001828054600181600116156101000203166002900480156136405780601f1061361557610100808354040283529160200191613640565b820191906000526020600020905b81548152906001019060200180831161362357829003601f168201915b505050505093509750975097509750975050505061365c565050505b91939590929450565b6136736127e563ffffffff16565b15156136ea576040517f08c379a00000000000000000000000000000000000000000000000000000000081526004018080602001828103825260208152602001807f4f776e61626c653a2063616c6c6572206973206e6f7420746865206f776e657281526020015060200191505060405180910390fd5b6136f98161451663ffffffff16565b5b5b50565b6000610205600050805490509050613711565b90565b600060006066600050600084815260200190815260200160002060009054906101000a900473ffffffffffffffffffffffffffffffffffffffff169050600073ffffffffffffffffffffffffffffffffffffffff168173ffffffffffffffffffffffffffffffffffffffff16141591505061378b56505b919050565b600033905061379a565b90565b60006137ae8261371463ffffffff16565b1515613805576040517f08c379a000000000000000000000000000000000000000000000000000000000815260040180806020018281038252602c8152602001806156dd602c913960400191505060405180910390fd5b60006138168361205063ffffffff16565b90508073ffffffffffffffffffffffffffffffffffffffff168473ffffffffffffffffffffffffffffffffffffffff16148061388b57508373ffffffffffffffffffffffffffffffffffffffff166138738461148163ffffffff16565b73ffffffffffffffffffffffffffffffffffffffff16145b806138a257506138a18185612f1163ffffffff16565b5b9150506138ab56505b92915050565b6138c283838361466163ffffffff16565b6138d283826148ec63ffffffff16565b6138e28282614ac563ffffffff16565b5b505050565b600060006138fc8484614ba563ffffffff16565b905083600001600050600082815260200190815260200160002060005060000160009054906101000a900473ffffffffffffffffffffffffffffffffffffffff1691505061394656505b92915050565b606060006139608484614ba563ffffffff16565b90508360000160005060008281526020019081526020016000206000506004016000508054600181600116156101000203166002900480601f016020809104026020016040519081016040528092919081815260200182805460018160011615610100020316600290048015613a175780601f106139ec57610100808354040283529160200191613a17565b820191906000526020600020905b8154815290600101906020018083116139fa57829003601f168201915b5050505050915050613a2556505b92915050565b613a3b8282614c9463ffffffff16565b613a4b8282614ac563ffffffff16565b613a5a81614ece63ffffffff16565b5b5050565b613a6e8261371463ffffffff16565b1515613ac5576040517f08c379a000000000000000000000000000000000000000000000000000000000815260040180806020018281038252602c815260200180615811602c913960400191505060405180910390fd5b8060d460005060008481526020019081526020016000206000509080519060200190613af2929190615559565b505b5050565b60006000303b905060008114915050613b0d56505b90565b6000613b286380ac58cd60e01b61136763ffffffff16565b9050613b2f565b90565b63ffffffff60e01b817bffffffffffffffffffffffffffffffffffffffffffffffffffffffff191614151515613bd3576040517f08c379a000000000000000000000000000000000000000000000000000000000815260040180806020018281038252601c8152602001807f4552433136353a20696e76616c696420696e746572666163652069640000000081526020015060200191505060405180910390fd5b600160336000506000837bffffffffffffffffffffffffffffffffffffffffffffffffffffffff19167bffffffffffffffffffffffffffffffffffffffffffffffffffffffff1916815260200190815260200160002060006101000a81548160ff0219169083151502179055505b50565b600081600001600050549050613c55565b919050565b600060019054906101000a900460ff1680613c7f5750613c7e613af863ffffffff16565b5b80613c975750600060009054906101000a900460ff16155b1515613cee576040517f08c379a000000000000000000000000000000000000000000000000000000000815260040180806020018281038252602e81526020018061585f602e913960400191505060405180910390fd5b6000600060019054906101000a900460ff161590508015613d40576001600060016101000a81548160ff0219169083151502179055506001600060006101000a81548160ff0219169083151502179055505b613d4e614f2d63ffffffff16565b613d646380ac58cd60e01b613b3263ffffffff16565b5b8015613d87576000600060016101000a81548160ff0219169083151502179055505b505b565b600060019054906101000a900460ff1680613db05750613daf613af863ffffffff16565b5b80613dc85750600060009054906101000a900460ff16155b1515613e1f576040517f08c379a000000000000000000000000000000000000000000000000000000000815260040180806020018281038252602e81526020018061585f602e913960400191505060405180910390fd5b6000600060019054906101000a900460ff161590508015613e71576001600060016101000a81548160ff0219169083151502179055506001600060006101000a81548160ff0219169083151502179055505b613e7f613b1063ffffffff16565b1515613e8b5760006000fd5b613ea163780e9d6360e01b613b3263ffffffff16565b5b8015613ec4576000600060016101000a81548160ff0219169083151502179055505b505b565b600060019054906101000a900460ff1680613eed5750613eec613af863ffffffff16565b5b80613f055750600060009054906101000a900460ff16155b1515613f5c576040517f08c379a000000000000000000000000000000000000000000000000000000000815260040180806020018281038252602e81526020018061585f602e913960400191505060405180910390fd5b6000600060019054906101000a900460ff161590508015613fae576001600060016101000a81548160ff0219169083151502179055506001600060006101000a81548160ff0219169083151502179055505b613fbc613b1063ffffffff16565b1515613fc85760006000fd5b613fd78261505063ffffffff16565b5b8015613ffa576000600060016101000a81548160ff0219169083151502179055505b505b50565b6000600061020760005054905061020760008181505480929190600101919050909055508091505061402d56505b90565b808460000160005060008481526020019081526020016000206000506004016000509080519060200190614065929190615559565b508284600001600050600084815260200190815260200160002060005060000160006101000a81548173ffffffffffffffffffffffffffffffffffffffff021916908373ffffffffffffffffffffffffffffffffffffffff160217905550818460000160005060008481526020019081526020016000206000506002016000508190909055506140fa8461518363ffffffff16565b84600001600050600084815260200190815260200160002060005060030160006101000a81548163ffffffff021916908363ffffffff1602179055505b50505050565b614155816101396000506151ea90919063ffffffff16565b8073ffffffffffffffffffffffffffffffffffffffff167f6ae172837ea30b801fbfcdd4108aa1d5bf8ff775444fd70256b44e6bf3dfc3f660405160405180910390a25b50565b6141b4816101396000506152d490919063ffffffff16565b8073ffffffffffffffffffffffffffffffffffffffff167fe94479a9f7e1952cc78f2d6baab678adc1b772d936c6583def489e524cb6669260405160405180910390a25b50565b6000600073ffffffffffffffffffffffffffffffffffffffff168273ffffffffffffffffffffffffffffffffffffffff1614151515614285576040517f08c379a000000000000000000000000000000000000000000000000000000000815260040180806020018281038252602281526020018061583d6022913960400191505060405180910390fd5b8260000160005060008373ffffffffffffffffffffffffffffffffffffffff1673ffffffffffffffffffffffffffffffffffffffff16815260200190815260200160002060009054906101000a900460ff1690506142de565b92915050565b600061430d8473ffffffffffffffffffffffffffffffffffffffff1661539d909063ffffffff16565b151561431c57600190506144e5565b60008473ffffffffffffffffffffffffffffffffffffffff1663150b7a0261434861379063ffffffff16565b8887876040518563ffffffff1660e01b8152600401808573ffffffffffffffffffffffffffffffffffffffff1673ffffffffffffffffffffffffffffffffffffffff1681526020018473ffffffffffffffffffffffffffffffffffffffff1673ffffffffffffffffffffffffffffffffffffffff16815260200183815260200180602001828103825283818151815260200191508051906020019080838360005b838110156144055780820151818401525b6020810190506143e9565b50505050905090810190601f1680156144325780820380516001836020036101000a031916815260200191505b5095505050505050602060405180830381600087803b1580156144555760006000fd5b505af115801561446a573d600060003e3d6000fd5b505050506040513d60208110156144815760006000fd5b8101908080519060200190929190505050905063150b7a0260e01b7bffffffffffffffffffffffffffffffffffffffffffffffffffffffff1916817bffffffffffffffffffffffffffffffffffffffffffffffffffffffff1916149150506144e556505b949350505050565b60008160010160009054906101000a900463ffffffff1663ffffffff169050614511565b919050565b600073ffffffffffffffffffffffffffffffffffffffff168173ffffffffffffffffffffffffffffffffffffffff161415151561459e576040517f08c379a00000000000000000000000000000000000000000000000000000000081526004018080602001828103825260268152602001806156936026913960400191505060405180910390fd5b8073ffffffffffffffffffffffffffffffffffffffff1661019e60009054906101000a900473ffffffffffffffffffffffffffffffffffffffff1673ffffffffffffffffffffffffffffffffffffffff167f8be0079c531659141344cd1fd0a4f28419497f9722a3daafe3b4186f6b6457e060405160405180910390a38061019e60006101000a81548173ffffffffffffffffffffffffffffffffffffffff021916908373ffffffffffffffffffffffffffffffffffffffff1602179055505b50565b8273ffffffffffffffffffffffffffffffffffffffff166146878261205063ffffffff16565b73ffffffffffffffffffffffffffffffffffffffff161415156146f5576040517f08c379a000000000000000000000000000000000000000000000000000000000815260040180806020018281038252602981526020018061588d6029913960400191505060405180910390fd5b600073ffffffffffffffffffffffffffffffffffffffff168273ffffffffffffffffffffffffffffffffffffffff161415151561477d576040517f08c379a00000000000000000000000000000000000000000000000000000000081526004018080602001828103825260248152602001806156b96024913960400191505060405180910390fd5b61478c816153b763ffffffff16565b6147e1606860005060008573ffffffffffffffffffffffffffffffffffffffff1673ffffffffffffffffffffffffffffffffffffffff16815260200190815260200160002060005061547e909063ffffffff16565b614836606860005060008473ffffffffffffffffffffffffffffffffffffffff1673ffffffffffffffffffffffffffffffffffffffff1681526020019081526020016000206000506154aa909063ffffffff16565b816066600050600083815260200190815260200160002060006101000a81548173ffffffffffffffffffffffffffffffffffffffff021916908373ffffffffffffffffffffffffffffffffffffffff160217905550808273ffffffffffffffffffffffffffffffffffffffff168473ffffffffffffffffffffffffffffffffffffffff167fddf252ad1be2c89b69c2b068fc378daa952ba7f163c4a11628f55a4df523b3ef60405160405180910390a45b505050565b600061494a6001609c60005060008673ffffffffffffffffffffffffffffffffffffffff1673ffffffffffffffffffffffffffffffffffffffff168152602001908152602001600020600050805490506154c590919063ffffffff16565b90506000609d60005060008481526020019081526020016000206000505490508181141515614a63576000609c60005060008673ffffffffffffffffffffffffffffffffffffffff1673ffffffffffffffffffffffffffffffffffffffff168152602001908152602001600020600050838154811015156149c757fe5b906000526020600020900160005b5054905080609c60005060008773ffffffffffffffffffffffffffffffffffffffff1673ffffffffffffffffffffffffffffffffffffffff16815260200190815260200160002060005083815481101515614a2c57fe5b906000526020600020900160005b5081909090555081609d6000506000838152602001908152602001600020600050819090905550505b609c60005060008573ffffffffffffffffffffffffffffffffffffffff1673ffffffffffffffffffffffffffffffffffffffff1681526020019081526020016000206000508054809190600190039090614abd91906155de565b5050505b5050565b609c60005060008373ffffffffffffffffffffffffffffffffffffffff1673ffffffffffffffffffffffffffffffffffffffff16815260200190815260200160002060005080549050609d6000506000838152602001908152602001600020600050819090905550609c60005060008373ffffffffffffffffffffffffffffffffffffffff1673ffffffffffffffffffffffffffffffffffffffff1681526020019081526020016000206000508190806001815401808255809150509060018203906000526020600020900160005b9091929091909150909055505b5050565b60006000600090505b8360010160009054906101000a900463ffffffff1663ffffffff16811015614c105782846000016000506000838152602001908152602001600020600050600201600050541415614c025780915050614c8e565b5b8080600101915050614bae565b5060006001141515614c8d576040517f08c379a00000000000000000000000000000000000000000000000000000000081526004018080602001828103825260198152602001807f43616e27742066696e6420626c6f636b20626c6f636b5f69640000000000000081526020015060200191505060405180910390fd5b5b92915050565b600073ffffffffffffffffffffffffffffffffffffffff168273ffffffffffffffffffffffffffffffffffffffff1614151515614d3c576040517f08c379a00000000000000000000000000000000000000000000000000000000081526004018080602001828103825260208152602001807f4552433732313a206d696e7420746f20746865207a65726f206164647265737381526020015060200191505060405180910390fd5b614d4b8161371463ffffffff16565b151515614dc3576040517f08c379a000000000000000000000000000000000000000000000000000000000815260040180806020018281038252601c8152602001807f4552433732313a20746f6b656e20616c7265616479206d696e7465640000000081526020015060200191505060405180910390fd5b816066600050600083815260200190815260200160002060006101000a81548173ffffffffffffffffffffffffffffffffffffffff021916908373ffffffffffffffffffffffffffffffffffffffff160217905550614e6d606860005060008473ffffffffffffffffffffffffffffffffffffffff1673ffffffffffffffffffffffffffffffffffffffff1681526020019081526020016000206000506154aa909063ffffffff16565b808273ffffffffffffffffffffffffffffffffffffffff16600073ffffffffffffffffffffffffffffffffffffffff167fddf252ad1be2c89b69c2b068fc378daa952ba7f163c4a11628f55a4df523b3ef60405160405180910390a45b5050565b609e60005080549050609f6000506000838152602001908152602001600020600050819090905550609e6000508190806001815401808255809150509060018203906000526020600020900160005b9091929091909150909055505b50565b600060019054906101000a900460ff1680614f525750614f51613af863ffffffff16565b5b80614f6a5750600060009054906101000a900460ff16155b1515614fc1576040517f08c379a000000000000000000000000000000000000000000000000000000000815260040180806020018281038252602e81526020018061585f602e913960400191505060405180910390fd5b6000600060019054906101000a900460ff161590508015615013576001600060016101000a81548160ff0219169083151502179055506001600060006101000a81548160ff0219169083151502179055505b6150296301ffc9a760e01b613b3263ffffffff16565b5b801561504c576000600060016101000a81548160ff0219169083151502179055505b505b565b600060019054906101000a900460ff16806150755750615074613af863ffffffff16565b5b8061508d5750600060009054906101000a900460ff16155b15156150e4576040517f08c379a000000000000000000000000000000000000000000000000000000000815260040180806020018281038252602e81526020018061585f602e913960400191505060405180910390fd5b6000600060019054906101000a900460ff161590508015615136576001600060016101000a81548160ff0219169083151502179055506001600060006101000a81548160ff0219169083151502179055505b61514582612b7663ffffffff16565b151561515b5761515a8261413d63ffffffff16565b5b5b801561517e576000600060016101000a81548160ff0219169083151502179055505b505b50565b600060008260010160009054906101000a900463ffffffff16905082600101600081819054906101000a900463ffffffff168092919060010191906101000a81548163ffffffff021916908363ffffffff16021790555050809150506151e556505b919050565b6151fa82826141fb63ffffffff16565b151515615272576040517f08c379a000000000000000000000000000000000000000000000000000000000815260040180806020018281038252601f8152602001807f526f6c65733a206163636f756e7420616c72656164792068617320726f6c650081526020015060200191505060405180910390fd5b60018260000160005060008373ffffffffffffffffffffffffffffffffffffffff1673ffffffffffffffffffffffffffffffffffffffff16815260200190815260200160002060006101000a81548160ff0219169083151502179055505b5050565b6152e482826141fb63ffffffff16565b151561533b576040517f08c379a00000000000000000000000000000000000000000000000000000000081526004018080602001828103825260218152602001806157c46021913960400191505060405180910390fd5b60008260000160005060008373ffffffffffffffffffffffffffffffffffffffff1673ffffffffffffffffffffffffffffffffffffffff16815260200190815260200160002060006101000a81548160ff0219169083151502179055505b5050565b60006000823b9050600081119150506153b256505b919050565b600073ffffffffffffffffffffffffffffffffffffffff166067600050600083815260200190815260200160002060009054906101000a900473ffffffffffffffffffffffffffffffffffffffff1673ffffffffffffffffffffffffffffffffffffffff1614151561547a5760006067600050600083815260200190815260200160002060006101000a81548173ffffffffffffffffffffffffffffffffffffffff021916908373ffffffffffffffffffffffffffffffffffffffff1602179055505b5b50565b615499600182600001600050546154c590919063ffffffff16565b816000016000508190909055505b50565b60018160000160008282825054019250508190909055505b50565b6000828211151515615542576040517f08c379a000000000000000000000000000000000000000000000000000000000815260040180806020018281038252601e8152602001807f536166654d6174683a207375627472616374696f6e206f766572666c6f77000081526020015060200191505060405180910390fd5b600082840390508091505061555356505b92915050565b828054600181600116156101000203166002900490600052602060002090601f016020900481019282601f1061559a57805160ff19168380011785556155cd565b828001600101855582156155cd579182015b828111156155cc57825182600050909055916020019190600101906155ac565b5b5090506155da919061560a565b5090565b81548183558181111561560557818360005260206000209182019101615604919061560a565b5b505050565b6156329190615614565b8082111561562e5760008181506000905550600101615614565b5090565b9056fe455243373231456e756d657261626c653a206f776e657220696e646578206f7574206f6620626f756e64734552433732313a207472616e7366657220746f206e6f6e20455243373231526563656976657220696d706c656d656e7465724f776e61626c653a206e6577206f776e657220697320746865207a65726f20616464726573734552433732313a207472616e7366657220746f20746865207a65726f20616464726573734552433732313a206f70657261746f7220717565727920666f72206e6f6e6578697374656e7420746f6b656e4552433732313a20617070726f76652063616c6c6572206973206e6f74206f776e6572206e6f7220617070726f76656420666f7220616c6c4552433732313a2062616c616e636520717565727920666f7220746865207a65726f20616464726573734552433732313a206f776e657220717565727920666f72206e6f6e6578697374656e7420746f6b656e4d696e746572526f6c653a2063616c6c657220646f6573206e6f74206861766520746865204d696e74657220726f6c65526f6c65733a206163636f756e7420646f6573206e6f74206861766520726f6c654552433732313a20617070726f76656420717565727920666f72206e6f6e6578697374656e7420746f6b656e4552433732314d657461646174613a2055524920736574206f66206e6f6e6578697374656e7420746f6b656e526f6c65733a206163636f756e7420697320746865207a65726f2061646472657373436f6e747261637420696e7374616e63652068617320616c7265616479206265656e20696e697469616c697a65644552433732313a207472616e73666572206f6620746f6b656e2074686174206973206e6f74206f776e4552433732314d657461646174613a2055524920717565727920666f72206e6f6e6578697374656e7420746f6b656e4552433732313a20617070726f76616c20746f2063757272656e74206f776e65724552433732313a207472616e736665722063616c6c6572206973206e6f74206f776e6572206e6f7220617070726f766564455243373231456e756d657261626c653a20676c6f62616c20696e646578206f7574206f6620626f756e6473a265627a7a72315820ae380902cd7382dc3c6b45ada4adcf7511036082124ccd30d3e3d8ebc820d97564736f6c634300050c0032",
  "compiler": {
    "name": "solc",
    "version": "0.5.12+commit.7709ece9.Emscripten.clang",
    "optimizer": {},
    "evmVersion": "constantinople"
  }
}