{
  "fileName": "granitt_utils.sol",
  "contractName": "granitt_utils",
  "source": "pragma solidity ^0.5.3;\r\n\r\nlibrary granitt_utils {\r\n\r\n  function concat_str(string memory _a, string memory _b) public pure returns (string memory)\r\n  {\r\n    bytes memory bytes_a = bytes(_a);\r\n    bytes memory bytes_b = bytes(_b);\r\n    string memory length_ab = new string(bytes_a.length + bytes_b.length);\r\n    bytes memory bytes_c = bytes(length_ab);\r\n    uint k = 0;\r\n    for (uint i = 0; i < bytes_a.length; i++) bytes_c[k++] = bytes_a[i];\r\n    for (uint i = 0; i < bytes_b.length; i++) bytes_c[k++] = bytes_b[i];\r\n    return string(bytes_c);\r\n  }\r\n}",
  "sourcePath": "contracts/granitt_utils.sol",
  "abi": [
    {
      "constant": true,
      "inputs": [
        {
          "internalType": "string",
          "name": "_a",
          "type": "string"
        },
        {
          "internalType": "string",
          "name": "_b",
          "type": "string"
        }
      ],
      "name": "concat_str",
      "outputs": [
        {
          "internalType": "string",
          "name": "",
          "type": "string"
        }
      ],
      "payable": false,
      "stateMutability": "pure",
      "type": "function"
    }
  ],
  "bytecode": "0x6103b0610029600b82828239805160001a607314151561001b57fe5b30600052607381538281f350fe73000000000000000000000000000000000000000030146080604052600436106100395760003560e01c8063ec1a81cc1461003f57610039565b60006000fd5b61019e600480360360408110156100565760006000fd5b81019080803590602001906401000000008111156100745760006000fd5b8201836020820111156100875760006000fd5b803590602001918460018302840111640100000000831117156100aa5760006000fd5b91908080601f016020809104026020016040519081016040528093929190818152602001838380828437600081840152601f19601f82011690508083019250505050505050909091929090919290803590602001906401000000008111156101125760006000fd5b8201836020820111156101255760006000fd5b803590602001918460018302840111640100000000831117156101485760006000fd5b91908080601f016020809104026020016040519081016040528093929190818152602001838380828437600081840152601f19601f8201169050808301925050505050505090909192909091929050505061021a565b6040518080602001828103825283818151815260200191508051906020019080838360005b838110156101df5780820151818401525b6020810190506101c3565b50505050905090810190601f16801561020c5780820380516001836020036101000a031916815260200191505b509250505060405180910390f35b606060608390506060839050606081518351016040519080825280601f01601f19166020018201604052801561025f5781602001600182028038833980820191505090505b50905060608190506000600090506000600090505b85518110156102e757858181518110151561028b57fe5b602001015160f81c60f81b83838060010194508151811015156102aa57fe5b60200101907effffffffffffffffffffffffffffffffffffffffffffffffffffffffffffff1916908160001a9053505b8080600101915050610274565b506000600090505b845181101561036257848181518110151561030657fe5b602001015160f81c60f81b838380600101945081518110151561032557fe5b60200101907effffffffffffffffffffffffffffffffffffffffffffffffffffffffffffff1916908160001a9053505b80806001019150506102ef565b5081955050505050506103755650505050505b9291505056fea265627a7a72315820e67b883d85cdfd529355ba87b2fccb8184cbdc152fc874ff2f936770a59fbb1364736f6c634300050c0032",
  "compiler": {
    "name": "solc",
    "version": "0.5.12+commit.7709ece9.Emscripten.clang",
    "optimizer": {},
    "evmVersion": "constantinople"
  }
}